:0200000460009A
:100000004643464200000156000000000103030081
:1000100000000000000000000000000000000000E0
:1000200000000000000000000000000000000000D0
:1000300000000000000000000000000000000000C0
:1000400000000000010408000000000000000000A3
:100050000000800000000000000000000000000020
:100060000000000000000000000000000000000090
:100070000000000000000000000000000000000080
:10008000EB04180A063204260000000000000000FD
:10009000050404240000000000000000000000002F
:1000A0000000000000000000000000000000000050
:1000B0000604000000000000000000000000000036
:1000C0000000000000000000000000000000000030
:1000D00020041808000000000000000000000000DC
:1000E0000000000000000000000000000000000010
:1000F0000000000000000000000000000000000000
:10010000D8041808000000000000000000000000F3
:100110000204180804200000000000000000000095
:1001200000000000000000000000000000000000CF
:10013000600400000000000000000000000000005B
:1001400000000000000000000000000000000000AF
:10015000000000000000000000000000000000009F
:10016000000000000000000000000000000000008F
:10017000000000000000000000000000000000007F
:10018000000000000000000000000000000000006F
:10019000000000000000000000000000000000005F
:1001A000000000000000000000000000000000004F
:1001B000000000000000000000000000000000003F
:1001C000000100000010000001000000000000001D
:1001D000000001000000000000000000000000001E
:1001E000000000000000000000000000000000000F
:1001F00000000000000000000000000000000000FF
:10020000FFFFFFFFFFFFFFFFFFFFFFFFFFFFFFFFFE
:10021000FFFFFFFFFFFFFFFFFFFFFFFFFFFFFFFFEE
:10100000D10020432914006000000000000000000F
:101010002010006000100060001801600000000057
:10102000000000600024010000000000FFFFFFFF3F
:10103000FFFFFFFFFFFFFFFFFFFFFFFFFFFFFFFFC0
:10104000FFFFFFFFFFFFFFFFFFFFFFFFFFFFFFFFB0
:10105000FFFFFFFFFFFFFFFFFFFFFFFFFFFFFFFFA0
:10106000FFFFFFFFFFFFFFFFFFFFFFFFFFFFFFFF90
:10140000884207D0904205D251F8043B40F8043B93
:101410008242F9D8704700BF884204D2002340F8C6
:10142000043B8142FBD87047664B4FF42A01664A61
:1014300066482DE9F0475A641864654A99639546F1
:10144000BFF34F8FBFF36F8F00F030F9614B08206F
:10145000614A6249C3F854016148FFF7D1FF614A0C
:1014600061496248FFF7CCFF61496248FFF7D4FF4A
:10147000614C62494FF470000023614A086044F8EF
:1014800023200133B02BFAD15E4B80215E4A03F852
:10149000011B9342FBD14F4D4FF080385B494FF019
:1014A000FF325B4B0026DFF8A4A1DFF8A4911C609B
:1014B000C5F80481C5F800A1C5F8F480C5F8F0901E
:1014C0000B68544F43F4E0230B60FB693D4923F064
:1014D0007F0343F04003FB617B6A23F07F0343F00B
:1014E00040037B628A66CA660A674A6700F0E4F8CE
:1014F000494A4A4B6320A2630321E363484A494BAC
:10150000106000F160401E6042F8041C00F6A170FB
:101510004549464AC3F8082D0B68454A43F0807395
:101520000B601368434943F00103136003680B60C9
:1015300000F012FBC5F804813F48C5F800A1C5F8CA
:10154000F480C5F8F09000F077FCF96E3B4A41F466
:1015500040513B4BF9661660C2F80861C2F8186149
:10156000C2F82861C2F838619A6BD20708D442F6F3
:101570001562344959651A659A6B42F001029A6303
:101580002F4A314C936843F00113936000F006F941
:1015900000F060F800F054FC00F010FB00F088F858
:1015A0002368132BFCD900F08FFB2368B3F5967FDB
:1015B000FBD300F07FF800F04BFC00F02DFC30BFB7
:1015C000FDE700BF00C00A40AFAAAAAA070020009A
:1015D0000000072000800D4050DD000080200060EA
:1015E00000000000C016002058FE0060000000202F
:1015F000C01A0020C01600200014002088ED00E072
:10160000F53A000000E400E0A0E400E024ED00E092
:1016100008ED00E000C00F4005070000E1090000F0
:1016200014E000E018E000E0FCED00E00000202005
:10163000001000E0F01900200046C32300400840DD
:1016400000400D400000C056EC1900201B1018206F
:101650000C0D1113114B1249D86E0A4640F440305C
:1016600030B4D86640F23765D86EA02440F440709C
:10167000D8664D648C64936C1B06FCD4094B40F215
:101680003760A0211A4658649964936C13F0800364
:10169000FBD1054A137030BC704700BF00C00F403B
:1016A00000400C4000800C401D1A0020704700BF15
:1016B000704700BF704700BFF0B5244A0020244B9C
:1016C0004FF0100C234C1126DFF8C8E012272060E1
:1016D0000125C2F800C0C3F800E01660DFF8B8E0EA
:1016E0001D4EC3F800E01D4917601E6041F0150152
:1016F0001B4F1C4E17601E601B4F1C4E17601E6058
:101700001B4F11601B4E1C491F6016601B4F196058
:101710001B4E1C4917601E601B4F11601B4E1C495D
:101720001F60166019602560BFF34F8FBFF36F8F86
:10173000C3F8B001BFF34F8FBFF36F8F52F8883CEF
:1017400043F4403342F8883CF0BD00BF9CED00E01C
:10175000A0ED00E094ED00E009001000C01A0020A8
:1017600013002000210002071400002025000813A8
:10177000090000101600202027000B13170000405E
:1017800033001013180000602F000B0719000070C1
:101790002F000B133F00001025000803F0B58D4B00
:1017A00018228D4E01208D4948F20C7E8C4D4FF051
:1017B000FF378C4C83B0C3F85C12C3F8605200252D
:1017C000C3F86412C3F868424FF40054C3F86C6263
:1017D0008549C3F87062C3F87462C3F87862834EB7
:1017E000DA661A675A679A67DA67C3F88020C3F81F
:1017F0008420C3F8882040F20562C1F82C03C1F8A8
:101800003003C1F83403C1F83803C1F83C03C1F810
:1018100050032946B36976481840764B034376480F
:10182000B361D6F8843043F00C03C6F88430022646
:10183000036833430360036803EA0E0E6F4B4EEAFE
:101840000303DFF8F0E103606D4B4760DEF80870DA
:101850003B406C4F43F000538360C36823F0780330
:10186000C360036A1F40684B3B43664F0362036AD1
:101870001F40654B3B43654F43628762C762DEF89A
:10188000B830634F23F03F0343F00103C0F8B83092
:10189000DEF8BC30DFF884E123F03F0343F00103BE
:1018A000C0F8BC30056104660767C0F88020446654
:1018B0004767C0F884200468564B24F00204564A57
:1018C0000460C0F818E0C66143F8041B9342FBD1E2
:1018D000494B1A68194642F001021A600B68464AE1
:1018E00013F00103FAD14D4E022540F2F56440F2A7
:1018F000664040F299414A4F966142F20146D561F5
:1019000040F23545C2F8004242F20124C2F810020A
:101910000120C2F820121146C2F8307207F15A476E
:10192000C2F8346207F51377C2F840523D4E3E4D7F
:10193000C2F85072C2F85462C2F86052C2F86442EF
:10194000C2F8A030C2F8A430C2F8B0004B692A4AED
:10195000DD07FBD5012300244FF48030114653618D
:10196000C2F8A040C2F8A400C2F8B0304B69224AC5
:10197000DC07FBD5012300244FF4003011465361EE
:10198000C2F8A040C2F8A400C2F8B0304B691A4AAD
:10199000D807FBD501230024244811465361C2F81F
:1019A000A040C2F8A400C2F8B0304B69124ADB076D
:1019B000FBD5D2F8003145F60D5121209BB2506184
:1019C0008B4239D01A4B00221A605A609A60DA6052
:1019D00003B0F0BD00801F40F9700100F9B00100B4
:1019E000F9100100F900010000841F4000C00F4001
:1019F000FFFCFF1F000300A000402A401200FFFF71
:101A0000FF37F70000FFF07C40000080FF000F83ED
:101A10006300020000422A4000432A40F05AF05A74
:101A20009F041830063201263806180A0400030005
:101A3000741A002000802A4000244FF480200123E3
:101A40001146C2F8A040C2F8A400C2F8B0304B69F9
:101A50003B4ADF07FBD501234FF400040020114669
:101A60005361C2F8A040C2F8A400C2F8B0304B697C
:101A7000334ADE07FBD501234FF400044FF48030D6
:101A800011465361C2F8A040C2F8A400C2F8B030B9
:101A90004B692B4ADD07FBD501234FF400044FF4BB
:101AA000003011465361C2F8A040C2F8A400C2F849
:101AB000B0304B69224ADC07FBD501234FF4000408
:101AC000204811465361C2F8A040C2F8A400C2F8F1
:101AD000B0304B691A4AD807FBD5D2F8003145F629
:101AE0000D5121209BB250618B4210D0164B082221
:101AF0004FF400041A7015490020154A0123009084
:101B0000521A1448224400F08BF903B0F0BD4FF490
:101B100000044FF4802101231046C2F8A040C2F80F
:101B2000A410C2F8B03043690549DB07FBD501209A
:101B3000054B10224FF0807448611A70DBE700BF3C
:101B400000402A40040003001E1A0020000000701C
:101B500000000070741A0020F0B4174A40274FF4B8
:101B600080314FF480564FF400554FF4404443F217
:101B70004200136913F0020F06D094615161906125
:101B8000136913F0020FF8D113F4005F01D155610E
:101B9000EFE713F4805F01D15661EAE7002BE8DA42
:101BA00013F4803F01D09161E3E75B0601D45761F4
:101BB000DFE7F0BC704700BF00800D40384AF3EE0D
:101BC000095A384813689FED386A23F00103DFEDA6
:101BD000376A3749F0B503251360DFF8E8E00024E1
:101BE0001561D0F8E030334DDEB2C3F30B201B0D8E
:101BF00007EE106A05EE100A07EE903A0E60B8EE96
:101C0000C55A4860B8EEC77A1768F8EEE77A2A48EE
:101C10002A4E37EE466A77EEC57A77EE666A37EE79
:101C2000657A26EE276AC1ED037A66EEA76A67EE4B
:101C3000277A81ED027AC6EE075A86EE876AC7EEEA
:101C4000876A35EE857AFCEEC77A36EE057A17EEAE
:101C5000903ABCEEC77A47EA035376EE857A136072
:101C600017EE103AD2F81071FCEEE77A0EEA034153
:101C7000394317EE903AC2F81011C3F30B03D2F8B0
:101C800010110B43C2F81031136843F002031360C4
:101C90002C70C0F840610A4B01221A60F0BD00BFF1
:101CA00080810D4000441F400000AA420000B44261
:101CB000F819002040E400E000140020F93C000086
:101CC00008E100E00000FF0F304B40F6617270B594
:101CD000C3F8202140F2044500F0B6F82C492D4805
:101CE000D1F880202C4C42F003022C4BC1F880200C
:101CF000C0F86051226813401BB9D0F8A8319A0788
:101D00001AD0244B4FF00041234A51631A46D3F8AE
:101D1000401141F00201C3F84011D2F840319B0755
:101D2000FBD44FF400301E491B4B4FF000420860BB
:101D300019209A6300F078F81A4D0022164B4FF0E4
:101D40008041144C0A26996328461A601146C4F84B
:101D5000A8614FF4207200F06BF84FF4810640F256
:101D600043114FF48000104B104A2E602864C4F8D1
:101D70005851C4F84811C3F804220D4A4FF40031F9
:101D800001231160C4F8403170BD00BF00800D40D8
:101D900000C00F4000002E4000900D40001C1E00AF
:101DA0008CE200E00000002000140020E13E000072
:101DB0000CE100E008B50E4B1B6E9B0700D4FBBE88
:101DC00072B60C4B00200C4AC3F8400103F160438B
:101DD0000A49A3F55F2311649D46BFF34F8F084A5C
:101DE00003F5E0430749126818461960936898475D
:101DF00000441F4000002E4000C00A4003002000A5
:101E00001C002000000012EBF8B500BFF8BC08BCB5
:101E10009E467047000000005FF800F04904000093
:101E20005FF800F0153A00005FF800F0B5280000F8
:101E30005FF800F089A100005FF800F0F5250000D0
:101E40005FF800F0013600005FF800F09D470000E9
:101E50005FF800F035A000004500000051040000CC
:041E6000ED1A000077
:101E640000110000010000002C861F40010000004A
:101E7400011000000100000000000000000000004C
:101E840002060000030000001C861F400000000042
:101E9400030700000300000020861F40000000002C
:101EA400040800000300000024861F400000000016
:101EB40005110000030000002C861F4000000000F4
:101EC400070F0000010000000000000000000000F7
:101ED400080E0000010000000000000000000000E7
:101EE4001E170000010000003C861F400000000097
:101EF4001F1600000100000038861F40000000008B
:101F0400200A0000010000000000000000000000A2
:101F1400210900000300000028861F400000000083
:101F24002410000001000000000000000000000078
:101F340025110000010000002C861F400300000052
:101F44002A0700000300000020861F400100000053
:101F54002B060000030000001C861F400100000047
:101F64002C0500000300000018861F40010000003B
:101F74002D0400000300000014861F40010000002F
:101F84002E0900000300000028861F400100000005
:101F94002F0800000300000024861F4001000000F9
:101FA40014010100160355005300420020005300A1
:101FB40065007200690061006C00000018035400A1
:101FC400650065006E0073007900640075006900A7
:101FD4006E006F000403090409024B00020100C0F3
:101FE40032080B000202020100090400000102028F
:101FF4000100052400100105240101010424020646
:1020040005240600010705820310001009040100DD
:10201400020A0000000705030240000007058402CD
:102024004000000009024B00020100C032080B000E
:102034000202020100090400000102020100052459
:1020440000100105240101010424020605240600F0
:10205400010705820310000509040100020A0000BB
:1020640000070503020002000705840200020000C5
:0C2074000A060002EF020140010000001B
:102080000000000000000000000000000000000050
:102090000000000000000000000000000000000040
:1020A00010B5054C237833B9044B13B10448AFF392
:1020B00000800123237010BD1019002000000000D3
:1020C000D4DA0000084B10B51BB108490848AFF33B
:1020D00000800848036803B910BD074B002BFBD0F4
:1020E000BDE81040184700BF000000001419002090
:1020F000D4DA0000C016002000000000000000003C
:10210000FDEEC07B17EE903A002BB8BF5B42012B6F
:1021100005DD07EE903AB8EEE77B80EE070BB5EEF3
:10212000C00BF1EE10FA1EDD9FED117B20EE077B58
:10213000B8FE477BFDEEC77B17EE903AB5EEC00BBD
:102140000360F1EE10FA02D40023436070479FED64
:102150000A7B20EE070BB8FE400BFDEEC07B17EEAE
:10216000903A436070470023E8E700BFAFF3008078
:10217000000000000000704000000000000070C07F
:1021800010B582B01C4602AB03E90300D0B200993F
:1021900003F08AF90199E0B202B0BDE8104003F003
:1021A00083B900BF07EE900AB8EEE77B27EE000B7D
:1021B00020EE010B05F06CBC9FED077B06EE900A4C
:1021C00020EE070BB8EEE66B20EE060B20EE010BBF
:1021D00005F05EBCAFF30080182D4454FB2119407C
:1021E00010B506EE100A82B072B6134B93ED007A6A
:1021F00062B69FED0F4BB8EEC66BB8EEC77B86EEAE
:10220000045B27EE000B25EE000B05F041FC684651
:10221000FFF776FF0D209DE8120003F045F90F202F
:10222000214602B0BDE8104003F03EB9AFF3008094
:102230000000000080842E41A8180020F8B501217C
:102240000F2002F055FC01210D2040F2EE2602F095
:102250004FFC07200021184D02F04AFC1748184A8D
:102260000468184F13783BB12B78DB0704D503685B
:1022700039685B1A0E2B06D8036811781B1BB9B19D
:10228000B3F5FA6FEED900224FF416510E4800F064
:10229000EDFC00210D2003F007F900210F2003F0D1
:1022A00003F90A4A0A490B48BDE8F84001F0D6B9DB
:1022B000B342D7D9E7E700BFA5180020EC190020EA
:1022C000DC1800208C1A0020A40E0020FF5207000A
:1022D000ED0300009C0E0020704700BFF0B5002306
:1022E00085B001930293039304E0009A03B11A604E
:1022F0000433029304F076FD0446B0B104F0A2FD6D
:1023000000900E21284804F0C3FD0099274801F0F1
:10231000E7FA264801F06CFA029B039A9342E4D153
:10232000694601A800F0F8F8E4E7029B0199043B34
:102330000E688B42029318462AD01A46274608E0B8
:102340000025043B08462F4401349942029316D0DD
:102350001A4652F8045C303D092DF1D807EE904A38
:10236000B2EE040BB8EEE71B05F07AFCBDEEC00B35
:10237000029B019910EE102A05FB02F5E1E72D2ED4
:1023800009D03C4608B102F06DFD204605B0F0BD15
:102390002D2EF8D127467C42F4E7019808B102F0CF
:1023A00061FD04F063FE00BF340B00204C0F0020E1
:1023B00010B582B004F016FD08B902B010BDFFF7E9
:1023C0008DFF04461221104804F062FD21460F489B
:1023D00001F086FA0D4801F00BFA002C6846B8BFF0
:1023E000FF34231200EE103AB8EEC00BFFF788FE60
:1023F0000D209DE8120003F057F80F20214602B08F
:10240000BDE8104003F050B8440B00204C0F0020F2
:10241000044901F10802283108B5104600F004F91A
:1024200008BD00BFA81800200F4901F1080228319B
:1024300010B52DED028B82B0104600F0F5F8B0EE2D
:10244000408B6846FFF75CFE0D209DE8120003F00C
:102450002BF80F20214603F027F8B0EE480B02B00E
:10246000BDEC028B10BD00BFA818002038B5104D80
:10247000104C2B6801332DED028B2B60FFF7D4FF3E
:10248000B0EE408B2968204601F02AFA02210A4862
:1024900004F0FEFC2046B0EE480B022101F0A6FA43
:1024A0002046BDEC028BBDE8384001F0A1B900BF69
:1024B000A81800204C0F0020580B002010B504462F
:1024C00001F02CF9204610BD08B5FFF7B7FEFEE776
:1024D000F0B40D4B00260027012100200B4A996221
:1024E00083F820000A490B4805A5D5E90045C3E952
:1024F0000267C3E90445F0BC04F093BEAFF300806B
:10250000555555555555D53FA8180020980E002013
:102510003D0400009C0E002090E80C002DE9F041E5
:102520009B1A05460F469B1005D05C00A34226D996
:102530006FF0030400E00424204602F08FFC0646FE
:10254000D5F800806A683968C8EB0202B7184FEA0C
:10255000A20318BFB15063B90437B8F1000F02D01D
:10256000404602F07FFC344485E8C000AC60BDE822
:10257000F08141463046043709F02BFEF0E7B4F114
:10258000804FD5D22646002CDAD0DC00D4E700BF3D
:10259000B7EE006B02222249D0F800C09FED1C0B61
:1025A0009FED1D5B2DE9F04144F2A71E1D4F40F643
:1025B0001436ACFB01456FF00044A1FB0C38C5EBB1
:1025C0000C0305EB5303C8EB0C051B0C08EB55057E
:1025D00007FB13C32D0C0EFB03F306FB05F51C4490
:1025E000AB42A3EB050338BF631B013A03F1FF3491
:1025F0009C4607EE904AB8EE677BA7EE060B26EEE8
:10260000056BD6D1036080EE060BBDE8F08100BFFC
:102610000000000000000000000080FFFFFFDF411D
:10262000BD169C061DF30100037E70B505461646D7
:102630002DED0C8B002B44D1B0EE00AB0C46BFEE61
:10264000009BB7EE00BBB0EE49DB2046B0EE49CBB5
:10265000FFF79EFF2046A0EE0ADBFFF799FFA0EEF2
:102660000ACB2CEE0C8BADEE0D8BB4EECB8BF1EEDA
:1026700010FAE8DCB5EE408BF1EE10FAE3D0B0EEE4
:10268000480B05F065FAB8EE007B20EE070B80EEF4
:10269000086BB1EEC60BB4EE400BF1EE10FA15D19B
:1026A0002DEE00DB01232B762CEE00CB85ED04DB39
:1026B00096ED027B96ED000BACEE070BBDEC0C8BA0
:1026C00070BD002390ED04CB0376F1E7B0EE460B2E
:1026D00005F062FCE4E700BF10B4EFF3108272B6BD
:1026E000437F33B9017F012908D003290FD001238B
:1026F000437702B962B65DF8044B70470F490C6826
:1027000094B14C684361846148606061EFE70B49B4
:102710008C6874B1CC6843618461C8606061084BA7
:102720004FF080511960E2E74461846108604860BD
:10273000DDE7446184618860C860F0E72C190020FF
:1027400004ED00E070B5EFF3108172B60C4CA36895
:102750008BB1264600255A69A2607AB1956101B90C
:1027600062B65D7718469B689847EFF3108172B6A2
:10277000A368002BEFD101B962B670BDF260EEE73D
:102780002C190020FFF7DEBF10B4EFF3108272B6F1
:10279000437F3BB1037F012B0AD0032B10D00021D4
:1027A0000123417702B962B618465DF8044B7047C1
:1027B000836941698BB15961416959B18B61EEE718
:1027C0008369416963B1596141690029F6D10749BB
:1027D000CB60E4E705494B60E1E7044C2160ECE79E
:1027E000024CA1600029E9D1F1E700BF2C190020BB
:1027F000037F012B0FD0032B00D07047437F3BB1E9
:1028000083694269D3B15A6142696AB90E4AD36099
:10281000002303777047437F002BF9D08369426917
:102820004BB15A6142691AB1936100230377704733
:10283000054A5360ECE704490A60F4E702498A60FC
:10284000002AF1D1E2E700BF2C190020002310B4C8
:10285000C360EFF3108372B6054A01241169047551
:102860008160106103B962B65DF8044B704700BF28
:102870002C190020184A30B45469002C28D0036861
:1028800021688B420FD2CB1A00218460C160236083
:10289000E0605061022330BC03757047036014464A
:1028A00011688B4208D3A2685B1A002AF6D18260B5
:1028B000C4600360A060EDE7D568CB1A8260022295
:1028C000C560E060C16888602360027530BC7047F5
:1028D0008460C4605061DDE72C19002030B4EFF350
:1028E000108172B6037DDBB2022B13D0012B03D013
:1028F00001B962B630BC7047124B1A6990421BD0C6
:102900009AB19368984213D07BB19A68904210D0E4
:102910001346F9E783682BB102681D68C4682A442E
:10292000DC601A60C26852B1936000230375DFE770
:10293000134682689A60F8E782681A61F5E7014AEF
:102940005361F2E72C190020037D70B504460D4653
:102950001646B3B9A5B1022D4FF0000326618CBF16
:10296000023D002563602560E360EFF3108372B6DB
:10297000054A012011692075A160146103B962B68E
:1029800070BDFFF7ABFFE5E72C190020037D70B5A4
:1029900004460D461646B3B9A5B1022D4FF000030B
:1029A00026618CBFAA1E0022E36084E82400EFF3B6
:1029B000108372B6054A012011692075A160146167
:1029C00003B962B670BDFFF789FFE5E72C19002057
:1029D000F8B5214E74692CB32368002B39D11D46FC
:1029E0001E4F04E07469ECB12368002B31D1A36859
:1029F00003B1DD6020697361036825751B68BB4204
:102A000020D1037F4560022BC4601FD0FFF764FE16
:102A10006368002BE6D023602046FFF72BFF746924
:102A2000002CE1D1EFF3108372B6002230693261DD
:102A300003B962B628B18468FFF71CFF204600285E
:102A4000F9D1F8BD224600219847E1E7836898470D
:102A5000DEE7013B2360E5E72C190020210A000096
:102A6000044A054B1168054A196013680133136065
:102A7000704700BF041000E0F0190020EC1900209E
:102A8000044A054B1168054A196013680133136045
:102A9000FFF79EBF041000E0F0190020EC190020A1
:102AA00010B4047F4160022CC26003D05DF8044B77
:102AB000FFF712BE83685DF8044B1847B0F8463044
:102AC000B0F848209BB292B2934202D2501EC01A74
:102AD0007047406B01381044C01A704772B6B0F8A6
:102AE0004A30B0F84C2099B293B2994201D2826B2D
:102AF00011440269CB1AD06AC0F30260184462B66E
:102B0000704700BFB0F84A20B0F84C3092B29BB288
:102B10009A4270B428D00133846BA34217D2016B60
:102B20009EB28B4218D2016AC95CC9B2856DA0F809
:102B30004C60B5B19A4238BF1219D31AC26B934296
:102B40000FD8C36D0846C5F8883070BC70470026A2
:102B5000016B33468B42E6D3591A456A695CC9B2A8
:102B6000E4E7084670BC704772B6B0F84A1089B204
:102B70008A4202D062B60A46CDE70369DA6A12F0E9
:102B8000E06F04D0D869C0F3090062B6DDE74FF00A
:102B9000FF30FAE790F8443043B110B5044604F032
:102BA000EDF994F84430002BF9D110BD704700BF07
:102BB000B0F84A20B0F84C3092B29BB29A4210D092
:102BC0000133816B026B8B4228BF0023934204D3F5
:102BD0009B1A426AD05CC0B27047026AD05CC0B235
:102BE000704772B6B0F84A1089B28A4201D062B614
:102BF000E6E70369DA6A12F0E06F11D0DB690021C1
:102C0000026AC3F3090310B40124A0F84A40A0F8F3
:102C10004C10D9B2517062B618465DF8044B70473B
:102C20004FF0FF3362B61846704700BFEFF31380D2
:102C3000B8B9EFF310834BB9EFF305823AB94FF40B
:102C40008073EFF3118050B1984208D270470F2A79
:102C5000F7D9054BD35CEFF311800028F4D1184667
:102C600070474FF0FF30F1E7F0E300E007EE901A15
:102C70009FEDA37A0421B6EE005AF8EE677A9FED35
:102C8000A16A2DE9F043C7EE275A0E46012541F609
:102C9000FF741DE0A342A8BF234607EE903AF8EE6A
:102CA000E76A76EEC76AC6EE877AF5EEC07AF1EE8D
:102CB00010FA48BFF1EE677AF4EEC67AF1EE10FA38
:102CC00003D8B0EE676A0E461D460131212911D0A6
:102CD00007EE901AF8EEE77A85EEA77A77EE057A96
:102CE000FDEEE77A17EE903A002BD3DCF7EE006AA0
:102CF0000123D6E70021436902F40074D0F838902C
:102D0000B3F85C70B3F85E808C42A0F84A10C7EB51
:102D10000907A0F84C1008BF8C46A0F8461018BF51
:102D20004FF0010CA0F8481080F84410D3F810E0E0
:102D30005969DEF80040C76344EA0104C8EB0901A1
:102D40000164CEF8004080F81AC040F0CE80047EC6
:102D50006D4903EB04146D4F247E01EB0414A46849
:102D60002760047E03EB0414277ED4F81CE001EBFB
:102D700007146468C4F800E0047E03EB0414276AB7
:102D80000FB1646A3C60447ED92703EB041494F8C5
:102D9000384001EB0414A4682760447E03EB04145C
:102DA00094F83870E46B01EB071149680C60417EC0
:102DB00003EB01110C6C0CB1496C2160711E5C7845
:102DC0005F68082E4FEA01614FF00006D8BF4FF44C
:102DD000003E04F1100401F0F853C8BFB646016983
:102DE0001D434B4B4EEA05050D61CE6043F8247040
:102DF0004369012447495D7893F85A30464E6B5435
:102E0000456901696B7803F01F075B11BC4046F808
:102E100023408B6A9B0803F01C030F2B60D85B10C8
:102E200003F00303DCB28B6A9B0003F01C030F2B3F
:102E300053D8DB0303F44033234302F00304CB6293
:102E40008B6A43F088038B6253074BD444F47013AE
:102E500002F00F04042C847E08BF43F080439706E1
:102E600048BF43F080530CB143F0A00316078B61B9
:102E700003D50B6943F000530B614B69D40623F073
:102E8000805348BF43F080534B61D30503D50B6992
:102E900043F400530B61EB681B78E3B91F4D2C78AA
:102EA00064B36B68834227D0611E2B1DC9B203EB4C
:102EB000810103E053F8042F90421BD08B42F9D1DB
:102EC000631CDBB2164A05EB84042B701378606038
:102ED00043F002031370BDE8F0834FF44033ABE7D7
:102EE0000324A0E70F4B2343B2E7447E4FF2D907F8
:102EF00005494AE7BDE8F083BDE8F0830123E1E737
:102F0000001BB74BEC78AD608C04002038F001005A
:102F10000014002000E400E000E100E04819002077
:102F20003511002010003C00436919695A6909688D
:102F300011422BD070B590F84420044632B104F011
:102F40001DF894F84430002BF9D163692069002101
:102F50000F4A05258161207EA66D03EB0010007EDF
:102F600002EB001040680560607E03EB001393F8ED
:102F7000383002EB031253681D60A4F84A10A4F81D
:102F80004C1016B1E36DC6F8843070BD704700BFB9
:102F90008C04002038B504460D4694F84430002BCC
:102FA000FBD12846012101F0A3FD054B2D015A1943
:102FB0005B59D26823656265C3F8882038BD00BFBD
:102FC0008C040020F8B54669037E06EB03131B7ED4
:102FD0008B4213D0327E8A4236D096F828208A421D
:102FE00053D000232A4A1C4601E012F8104CA1429B
:102FF00002F1100203D00133142BF6D1F8BD0C46B8
:103000002449DBB2244F0A6F054607EB031742F44D
:10301000400378780B6796F86010012602F08CFC6C
:103020001E492B6901EB04111D4D78684A688C68B4
:10303000DE60256010605A6AB96832435A6200291E
:10304000DCD0FB680B60F8BD00210C463569726965
:103050002D68154217D0114A06EB011605251049B7
:1030600002EB03135B681D60337E02EB03139B6866
:103070001960337EF16902EB031253681960336AF9
:103080000BB1726A1A600476F8BD01210C46DDE7C7
:10309000741E006000C00F40641E00608C0400209D
:1030A00038F00100F0B54369447E03EB041595F850
:1030B00038608E4208D093F838508D4216D093F87D
:1030C00048508D422BD0F0BD1B69A646164C1B689C
:1030D00080F819E004EB01111AB9D9228B681A6043
:1030E000F0BD40F6D8028B681A60F0BD4FF0000EBC
:1030F0001D695F692D683D4214D0744512D00A4C99
:1031000003EB0E13052704EB061675682F6093F882
:103110003850DE6B04EB05135B681E60D8E74FF098
:10312000010EE5E7004CD3E78C04002038B5436975
:103130001C695A692368134005D0362905D9002334
:103140008365184638BD184638BD0B01084A044649
:103150000846D518D2580121EB68A265E36501F055
:10316000C7FCA36DE26D0120C3F8882038BD00BF05
:103170008C040020F8B545692B696A691B68134007
:1031800018D0FF2903D095F858208A423AD000235E
:10319000264A1C4601E012F8104CA14202F110022E
:1031A0000AD00133142BF6D1016900234A6A22F0B8
:1031B00001024A621846F8BD0C461D49DBB21D4E9D
:1031C0000A6F074606EB031642F4400370780B675C
:1031D00095F8601002F0B0FB17493A69022701EB3D
:1031E0000411164D70688C68B3684968D760256013
:1031F00008600BB1F1681960516A01231943184640
:103200005162F8BD0C4901230C4C01EB021200691C
:103210009268146095F8582095F8594001EB021116
:103220004A681460426A1A434262C3E7741E00602F
:1032300000C00F40641E00608C0400203830010084
:10324000B0F84C30826D9BB2A0F84A3012B1C36D19
:10325000C2F88830704700BF10B4416299B1036B67
:103260001A44826344690021B4F85C30B4F85E40CB
:10327000D31AA0F84A10121BA0F84C10C3630264C2
:103280005DF8044B7047026B8263EBE78162C36AAF
:1032900039B11A4400234263A0F84630A0F8483000
:1032A000704743630023A0F84630A0F848307047C9
:1032B000F8B5036D04460E4613B1426DC3F8842081
:1032C000A37E33B172B62269936943F000539361D0
:1032D00062B6B4F84650636BADB201359D4249D237
:1032E000AFB2B4F848309BB2AB4220D1FFF79EFC9E
:1032F0006369B3F85A3098422DDC21694B691B028F
:10330000EFD5B4F84830626B9BB20133934227D2B9
:10331000E26A98B2934228D2E269D35CDBB2CB6115
:10332000A4F84800B4F848309BB2AB42DED0E36A60
:103330009D4222D3ED1AF6B2A36A5E5572B6012001
:10334000226984F84400A4F84670936943F40003AA
:10335000936162B6F8BDFF28C3DD03F00FFEC0E73E
:103360000020E26A03469342D6D39B1AA26AD35C3A
:10337000DBB2D4E700273D46B3E7F6B2E3695E551A
:10338000DCE700BFFFF794BF0269536913F4401FE5
:10339000F0B542D0D36AC3F30265002D3AD0B0F83D
:1033A0004A70B0F84CE0BFB21FFA8EFE06E0026A27
:1033B000D65402696B1E13F0FF051AD0D1697B1C2D
:1033C000866BB0F84C40C1F30901B34228BF00231B
:1033D000A4B2A342EED0026BCEB21F469342A3EB3F
:1033E0000204E4D3436A1E556B1E026913F0FF0505
:1033F000E4D1BBB2816DA0F84A3059B1774573D2A0
:10340000836BCEEB03031F44036C9F4202D3C36D57
:10341000C1F884305369DC0255D4D2F818E01EF4A8
:10342000000F02D0536919021CD41EF4800F48D03B
:1034300053695B0246D50021036D80F8441013B137
:10344000416DC3F88810837E3BB172B602699369FF
:1034500023F00053936162B60269936923F48003F9
:103460009361F0BDB0F84650B0F84830ADB29BB2B1
:103470009D422DD0466BC46A0AE0C169C95CC9B2DD
:10348000D161D16AC1F30221032912D8AB421FD006
:1034900001339E4298BF0023A342A3EB0401ECD367
:1034A000876A795CC9B2D161D16AC1F3022103296B
:1034B000ECD999B2AB42A0F848100CD01EF4800FA2
:1034C000B6D1F0BDF0BD536943F480135361A4E756
:1034D000ADB2A0F84850936923F400039361936957
:1034E00043F480039361A0E7CEEB07078CE700BFAE
:1034F00030B4104D2C78DCB16B68984216D0611E48
:103500002B1DC9B203EB810103E053F8042F824263
:103510000CD08B42F9D1631CDBB2074A05EB840463
:103520002B701378606043F00203137030BC704757
:103530000123F2E748190020351100200148FFF768
:1035400023BF00BFA40E002000F00F00092804D9FB
:1035500000F137010348FFF715BF00F130010148C2
:10356000FFF710BFA40E002010B5044608F038FF86
:10357000024603482146BDE8104000F0FDB800BFF8
:10358000A40E002010B504460009FFF7DDFF204619
:10359000BDE81040D8E700BF38B5050A0446000B67
:1035A000FFF7D2FF2846FFF7CFFF2009FFF7CCFF38
:1035B0002046BDE83840C7E738B50446050E000F81
:1035C000FFF7C2FF2846250CFFF7BEFF200DFFF7CF
:1035D000BBFF2846250AFFF7B7FF200BFFF7B4FF14
:1035E0002846FFF7B1FF2009FFF7AEFF2046BDE8F0
:1035F0003840A9E710B5144C236813B1134AD168B9
:10360000E9B9636813B1124AD168A1B9A36813B1CB
:10361000104AD16859B9E3683BB10F4AD16829B162
:103620000121BDE81040D160184710BD10BD012137
:10363000D1609847EFE70121D1609847E6E7012183
:10364000D1609847DDE700BFC01600200041084068
:103650001041084020410840304108400368F0B55F
:103660005BB3002501249D60DC60214D03241A60BA
:103670001D449C601F4C03792D111F4F6355237807
:103680006078FF2BA278E47828BFFF231B4E47F811
:103690002510834228BF034619489342C0F8286288
:1036A00028BF1346A34228BF2346164C4FF0806123
:1036B000154A012023701160F0BD144F4FF0010C2A
:1036C000134EFC6EDFF850E0334644F44054114D85
:1036D000FC66CEF800C006609C68002CC5D0103394
:1036E000AB420360F8D1002303601846F0BD00BF71
:1036F00000BFF7BF040F0020C016002075150000A2
:10370000001400207AE400E00CE100E000C00F406B
:1037100000410840404108400040084002680AB3A8
:10372000114B12491344F0B51B11FF250024DFF89B
:1037300044E0CD540E784D78FF2E94604EF823402F
:1037400028BFFF268A78C978AE423346084F28BF83
:103750002B46934228BF13468B4228BF0B463B7033
:103760000460F0BD704700BF00BFF7BF040F00202A
:103770007AE400E0C0160020F8B50E4671B17AB1C7
:103780000746144600253B68384616F8011B1B689F
:103790009847013C0544F6D12846F8BD0846F8BDD7
:1037A0001046F8BD2DE9F0438C688BB0ECB10025D4
:1037B000064689462F462B46212201A9484600F09D
:1037C00063FD202C2346306828BF202301A9D0F8B0
:1037D00004803046E41A1A461D44C0470744002CB2
:1037E000E9D138460BB0BDE8F0832746F9E700BFC2
:1037F00010B5064C82B003680222248801A95B68D8
:10380000ADF80440984702B010BD00BF700400201E
:10381000036810B514465B689847204610BD00BF8A
:103820000EB400B582B003AB53F8041B1A460193E3
:1038300009F09AFD02B05DF804EB03B0704700BFD9
:103840000EB400B582B003AB53F8041B1A460193C3
:1038500009F08AFD02B05DF804EB03B0704700BFC9
:10386000F0B506468BB0002A33D0012A08BF0A22E1
:1038700051B3212500E0FDB26F1EB1FBF2F402FB53
:103880001411C8B2092900F1370100F1300088BFD6
:10389000C8B221460AAC98BFC0B22C4404F8240C2C
:1038A0000029E8D133B1013D0AAB2D22EDB22B4402
:1038B00003F8242C336801A9C5F1220230462944BB
:1038C0005B6898470BB0F0BD302221258DF825208C
:1038D000E8E70368C9B21B6898470BB0F0BD00BFAA
:1038E000002903DB00230A22FFF7BABF49422D2338
:1038F0000A22FFF7B5BF00BF2DE9F04792B09DF84F
:1039000068609DF86CA0012E50D914461D46814672
:1039100054EA050344D0F6B200274FF0410801E015
:103920005FFA83F82046294632463B4607F09CFA68
:103930001946D3B22046002912AC03F1370E03F129
:10394000300308BF0A2A44442946324638BF5FFA8A
:1039500083FE3B4628BF5FFA8EFE04F844EC07F076
:1039600083FA04460D4608F1FF3354EA0502D7D125
:10397000BAF1000F08D008F1FF3812AB2D225FFA20
:1039800088F8434403F8442CD9F8003001A9C8F161
:103990004202484641445B68984712B0BDE8F08750
:1039A00030234FF041088DF84530E1E7002012B098
:1039B000BDE8F087002A73F1000170B582B007DB23
:1039C0000A2100248DE81200FFF796FF02B070BDB7
:1039D00052424FF00A014FF0010663EB43038DE8BA
:1039E0004200FFF789FF02B070BD00BFB4EE400B8C
:1039F00070B5F1EE10FA05462DED028B86B080F120
:103A00009180B0EEC07B9FED4C6BB4EE467BF1EE47
:103A100010FA0ADD036803224F495B68984706469F
:103A2000304606B0BDEC028B70BD9FED457BB4EE19
:103A3000C70BF1EE10FA58DC9FED437BB4EEC70BD9
:103A4000F1EE10FA51D4B5EEC00B0C46F1EE10FABF
:103A500056D40023002C57D0B6EE008B00229FEDE9
:103A60003C7B013228EE078BD1B28C42F9D830EE84
:103A7000080B0A222846FCEEC07BB8EE678B17EED7
:103A8000901A30EE488BFFF7EBFE0F2C4FF001023F
:103A9000B2EE047B4FF02E0328BF0F2406468DF8AC
:103AA00008301444E4B228EE070B531C06A9114455
:103AB000DAB2A242FCEEC06BCDED016A9DF8043093
:103AC00006EE903A03F13003B8EEE68B01F8103CB5
:103AD00030EE488BE7D12B68284602A95B689847EF
:103AE000304606B0BDEC028B70BD2B6803221B492B
:103AF0005B6898470646304606B0BDEC028B70BD49
:103B0000B1EE400B0123A5E7B6EE007B28460A2262
:103B100030EE070BFCEEC07B17EE901AFFF7A0FE0D
:103B200006467DE7036803220D495B689847064611
:103B300076E700BFAFF30080FFFFFFFFFFFFEF7FDF
:103B4000000000E0FFFFEF41000000E0FFFFEFC1D9
:103B50009A9999999999B93F640B0020600B0020BC
:103B60005C0B002000207047704700BF024A0349E9
:103B7000034803F056BB00BF980E00203D04000030
:103B8000080F002010B50446006808F0FDFA204632
:103B900010BD00BF38B543688B4201D3012038BD4A
:103BA0000D4604460131006808F0E2FB0028F6D01B
:103BB000A36884E82100002BF0D10370EEE700BF7A
:103BC00038B504460D460068013108F0D1FB10B14C
:103BD00020600120656038BDF8B50446154632B94D
:103BE000036803B11A700023A3602046F8BD0E4697
:103BF0001146FFF7CFFF074648B9206810B108F01B
:103C0000C3FA2760002320466360A360F8BDA56067
:103C10003146206808F0DCFBE7E700BF38B5002339
:103C20000446036043608360037341B10D46084658
:103C300008F0D6FB024629462046FFF7CDFF204676
:103C400038BD00BF38B5044600230D460846236042
:103C50006360A360237308F0C3FB29460246204635
:103C6000FFF7BAFF204638BD0023884210B504464E
:103C7000036043608360037303D08A680968FFF7B9
:103C8000ABFF204610BD00BF38B50C4605460846C0
:103C900008F0A6FB214602462846BDE83840FFF75B
:103CA0009BBF00BF10B50023044682B00A222360E8
:103CB0000846636001A9A360237309F023FB01A9EF
:103CC0002046FFF7E1FF204602B010BD10B50023EB
:103CD000044686B00846236001A96360A36023738D
:103CE00008F02EFA01A92046FFF7CEFF204606B0C5
:103CF00010BD00BF10B50023044686B008462360FF
:103D000001A96360A360237309F0FCFA01A92046AE
:103D1000FFF7BAFF204606B010BD00BF10B5002364
:103D200004468AB00846236001A96360A360237338
:103D300001F0C8F801A92046FFF7A6FF20460AB007
:103D400010BD00BF10B5002304468AB008462360AA
:103D500001A96360A360237301F08CF801A92046D8
:103D6000FFF792FF20460AB010BD00BF10B5002338
:103D700004468AB0881C23606A466360A36023738C
:103D800001F0B2F830B101462046FFF77DFF204632
:103D90000AB010BDA06020460AB010BD10B50023C7
:103DA00082B0044601228DF8041001A9036043602B
:103DB000836003738DF80530FFF70EFF204602B0D5
:103DC00010BD00BF814210D038B5054600680C46D2
:103DD00008B108F0D9F9002320686168A26885E875
:103DE000070023606360A36038BD7047002310B5EF
:103DF00004460360436083600373FFF7E3FF2046DC
:103E000010BD00BF002310B504460360436083600B
:103E10000373FFF7D7FF204610BD00BF814203D0D8
:103E20008A680968FFF7D8BE704700BF884210B59E
:103E3000044601D0FFF7C6FF204610BD884210B5EA
:103E4000044601D0FFF7BEFF204610BD10B5044662
:103E500019B1FFF719FF204610BDA160204610BD23
:103E600038B504460D46084608F0BAFA2946024617
:103E70002046FFF7B1FE204638BD00BF00B583B035
:103E8000002301228DF8041001A98DF80530FFF7F9
:103E9000A3FE03B05DF804FB2DE9F8430F46036869
:103EA00004461546BB4281680AD85A18974207D281
:103EB000C3EB07094FF0010835B92046BDE8F88388
:103EC0004FF00008002DF8D04E1920463146FFF77C
:103ED00061FE0028F1D0B8F1000F0ED023682A4609
:103EE000A06803EB0901184408F068F92368002270
:103EF0009A55A6602046BDE8F88320683946A36835
:103F0000184408F065FAF4E78A680968FFF7C4BF47
:103F100038B5054641B10C46084608F061FA02463C
:103F200021462846FFF7B8FF284638BD10B582B0B5
:103F30000023044601228DF8041001A98DF80530F4
:103F4000FFF7AAFF204602B010BD00BF10B584B035
:103F500004460A22084601A900F0B4FF01A808F0AF
:103F60003FFA01A902462046FFF796FF204604B01B
:103F700010BD00BF10B584B004460A22084601A94E
:103F800000F078FF01A808F02BFA01A902462046AC
:103F9000FFF782FF204604B010BD00BF10B584B00B
:103FA00004460A22084601A900F08CFF01A808F087
:103FB00017FA01A902462046FFF76EFF204604B01B
:103FC00010BD00BF10B584B004460A22084601A9FE
:103FD00000F050FF01A808F003FA01A902462046AC
:103FE000FFF75AFF204604B010BD00BF10B588B0DF
:103FF0000446022104206A4600F076FF684608F075
:10400000EFF9694602462046FFF746FF204608B012
:1040100010BD00BF10B504468A680968FFF73CFF71
:10402000204610BD38B5054641B10C46084608F09B
:10403000D7F9024621462846FFF72EFF284638BD0D
:1040400038B504460D46084608F0CAF92946024626
:104050002046FFF721FF204638BD00BF10B582B0D3
:104060000023044601228DF8041001A98DF80530C3
:10407000FFF712FF204602B010BD00BF10B5044686
:10408000FFF764FF204610BD10B50446FFF786FF1A
:10409000204610BD10B50446FFF794FF204610BD22
:1040A00010B50446FFF77AFF204610BD10B5044650
:1040B000FFF788FF204610BD10B50446FFF796FFB6
:1040C000204610BD10B50446B7EEC00BFFF78EFFBB
:1040D000204610BD036853B1096811B1184608F0B5
:1040E0006DB9806810B118787047184670470B6832
:1040F000002BFAD088680028F8D018784042704722
:1041000008B582688B689A4201D0002008BDFFF78D
:10411000E1FFB0FA80F0400908BD00BF826808B531
:104120000B462AB971B11878B0FA80F0400908BD81
:1041300031B1006808F042F9B0FA80F0400908BDDA
:104140000368F0E7012008BD08B5FFF7C3FFC00F03
:1041500008BD00BF08B5FFF7BDFF0028D4BF002091
:10416000012008BD08B5FFF7B5FF0028CCBF00202F
:10417000012008BD08B5FFF7ADFFC043C00F08BD63
:1041800088421BD083688A68934201D00020704720
:10419000A3B170B504680D68013C08E009F05AF855
:1041A000064615F8010B09F055F8864208D114F8B7
:1041B000013F1846002BF1D1012070BD012070474E
:1041C000002070BD10B583688C681B1B93420CD314
:1041D000036873B1096851B110462246184408F0CB
:1041E00007F9B0FA80F0400910BD002010BD084664
:1041F00010BD184610BD00BF82688B689A4202D37A
:104200000022FFF7DFBF0020704700BF10B58268B3
:104210008C68A2420DD3006850B1096839B1121BF5
:10422000104408F0CBF8B0FA80F0400910BD084601
:1042300010BD002010BD00BF8368994203D2006802
:1042400010B1405C70470020704700BF83688B420C
:1042500001D903685A54704783688B4203D90068B8
:1042600008B108447047024B002218461A70704784
:104270001C1A002083688B4203D9006810B1405C8F
:1042800070470020704700BFBAB170B5B1FA81F431
:1042900064097CB986689E420DD9F61A013A0D462A
:1042A000016896422846194428BF1646324608F04F
:1042B000B4F8AC5570BD0C7070BD704783683BB1ED
:1042C00010B50468204608F06BF820B1001B10BD43
:1042D0004FF0FF3070474FF0FF3010BD83689342BE
:1042E00007D910B50468A01808F05AF820B1001BCF
:1042F00010BD4FF0FF3070474FF0FF3010BD00BFD2
:10430000836843B1096810B50468204608F0ABF82B
:1043100020B1001B10BD4FF0FF3070474FF0FF3051
:1043200010BD00BF8368934208D9096810B50468BE
:10433000A01808F098F820B1001B10BD4FF0FF3016
:1043400070474FF0FF3010BDF8B5836893420ED927
:104350000368541C002205461F5D1A550668304646
:1043600008F06EF8375510B12B68C01AF8BD4FF041
:10437000FF30F8BD8268013AFFF7E6BF2DE9F04152
:1043800016468A68FAB18368EBB19A421BD8B342E9
:10439000056898BF03F1FF3615EB060813D20F68C6
:1043A00028464FF0FF3406E0431B01309E4228BFF1
:1043B0001C46404504D8394608F055F80028F3D18A
:1043C0002046BDE8F0814FF0FF30BDE8F08100BF2E
:1043D00082688B68D21AFFF7D1BF00BF9A42F8B546
:1043E00004460E4602D911461A460B460021A1602A
:1043F0002173B0682160824261600ED8834228BF79
:1044000003461D4633685F5D59553368991806D0D9
:104410002046FFF739FC33685F552046F8BDA160A0
:104420005F55FAE710B504468B68FFF7D7FF2046C3
:1044300010BD00BF10B4046844B1237833B1994271
:1044400008BF227014F8013F002BF8D15DF8044B2F
:10445000704700BF2DE9F04FD0F8089083B00546B3
:10446000B9F1000F45D0D1F808A00F46BAF1000FFE
:104470003FD0D2F808B016460468CAEB0B08B8F172
:10448000000F40D04BDB0B68CB462046019301E088
:104490005044C344019907F0E6FF0028F8D1CB450A
:1044A00027D06A6893455AD84B465A1E21D4002417
:1044B00039462846FFF762FFB0F1000919DBBB68F7
:1044C00029684B44AA681944D21A01EB080007F086
:1044D00080FEAB682A684344AB60D4542868B26855
:1044E0004844316807F06AFE09F1FF32B9F1000F64
:1044F000DED1284603B0BDE8F08F316807F05EFEDC
:10450000D6F808B05C442046396807F0ACFF5A463C
:1045100004460028F1D1284603B0BDE8F08FA2463A
:1045200010E0021B5046924407F048FE31685046A6
:10453000B26807F043FEAB68B168BC6843448A4484
:104540004C44AB603968204607F08DFF2146814618
:104550000028E6D12146504607F03AFFC9E7204639
:104560000BF1010107F004FF0028C2D0AB6885E819
:1045700001089AE783688B4203D9036800228160AF
:104580005A54704710B5836804469AB18B42084666
:1045900010D911448B4201D21A1A19469A1A23686B
:1045A000A2601944121A184407F013FE2268A36887
:1045B0000021D154204610BD38B50468054644B1E9
:1045C000207830B108F046FE207014F8010F002862
:1045D000F8D1284638BD00BF38B50468054644B157
:1045E000207830B108F044FE207014F8010F002844
:1045F000F8D1284638BD00BF2DE9F04106680746CE
:10460000EEB18468DCB1354600E04546287805F116
:10461000010807F075FD0028F7D1013C344401E0A2
:1046200028B1013C207807F06BFDAC42F8D2621C47
:10463000B542A2EB0502BA6004D80023B354384651
:10464000BDE8F0813046294607F0B8FD3E68BA68FB
:10465000F3E700BF006808B107F000BD704700BF76
:10466000006810B1002108F02FBD9FED010A7047CE
:1046700000000000964A974B90422DE9F043964C7B
:10468000D3F814E09969E6681CD9944B984240F23B
:104690001481934B40F22765924F0344924C1A0ABF
:1046A000A7FB0232D30903EB830303EB830202F27D
:1046B000E243AB4228BF2B46A3F54873A4FB033566
:1046C000ED0804E0894DA84294BF06250E25814AD5
:1046D00006F01F07D2F88030AF4243F0C003C2F8A3
:1046E00080300AD27C4B26F01F061A462E43DE602D
:1046F0001368002BFCDA06F01F071EF0007331D19F
:104700007B4C7C4AD4F810C014460CEA0202A24248
:104710000ABF4FF0C0534FF4805200228EEA0304C8
:1047200014F0605F08D02EF0605E03F06053694CB7
:1047300043EA0E0EC4F814E081EA020313F4405F6A
:1047400008D0644B21F4405111431A469961936C8F
:104750001C07FCD44EF0007E5E4AC2F814E0936C55
:104760009906FCD40121644C0A4601FB02F300FBCC
:1047700003F3A34209D8072A00F29480013201FB17
:1047800002F300FB03F3A342F5D95C485C4C1844E8
:10479000A4FB00031B0D6C2B00F28A80352B00F26A
:1047A0008E80DFF8848136235648DFF844C1564CAA
:1047B000DCF80090B0FBF2F009EA04044445B0FBD9
:1047C000F1F00BD043F400534FF480586446CCF81A
:1047D0000080CCF800302368002BFCDADFF8F4C04E
:1047E000013ADCF8103003F00703934207D002F0DF
:1047F00007026446CCF81020A36CDB03FCD401391B
:1048000089028EEA010313F4E05F0CD0314B2EF4E1
:10481000E05E01F4E0511A4641EA0E0EC3F814E0DE
:10482000936C9907FCD4394B39490344DB09A1FB4C
:104830000331090B042928BF04214B1E1B028EEAF9
:10484000030212F4407F07D02EF4407E03F440733D
:10485000204A43EA0E0353611E4B5C691A4624F05A
:1048600000745C61936C9B06FCD42A4B4FF0FF32C2
:10487000294CBD42A3FB00E320604FEA9343B0FB09
:10488000F1F1B2FBF3F3254A6160136008D2124BD9
:1048900026F01F061A462E43DE601368002BFCDA52
:1048A000BDE8F08304293FF670AF013101225CE7D7
:1048B000DFF878806C231A4877E7122507E7194854
:1048C000DFF86C8000FB03F043EA08086DE700BFE7
:1048D00000A4781F00C00F40000008400046C3231A
:1048E00000BA3CDC23B24C001F85EB5100366E0150
:1048F00000800D4040300080FFB19F26808D5B001E
:10490000819F5E1600B29F267F3001807FD1F00824
:104910009F10E50083DE1B43140F0020F4190020D4
:1049200000643F4D001BB700362000806C200080E3
:104930000020008000285ED001222DE9F04F824641
:1049400083B02D4C2D4D54E8003F2C4928686F68EA
:1049500044E80023002BF6D1DFF8A4B09E46DBF834
:104960000020D31B8A6800914FF47A71A3FB0223C5
:104970004FF47A72984600237345534608BF424568
:1049800038BF884601FB0080824618464FF0010E72
:1049900054E8003F2A68696844E800E3002BF7D137
:1049A0009C46DBF80080009BC1EB08014FF47A7E47
:1049B000D3F808800EFB02F2A1FB08894FF47A7845
:1049C000CAEB02024E464FF00009E14508BFB04570
:1049D0002CBF334673461A44724504D3013807D0BE
:1049E0000AF57A7AD2E7019002F0C8FA0198CDE789
:1049F00003B0BDE8F08F7047601A0020EC1900206A
:104A0000041000E02DE9F00F11490126114A51E888
:104A1000003F10481468556841E80063002BF6D148
:104A20000D4A12684FF0000B551B82684FF47A7ADA
:104A30009B454FF47A70A5FB028908BFCA454E46D4
:104A40002CBF4E46064600FB0460BDE8F00F7047E1
:104A5000601A0020EC190020041000E000010F4B48
:104A60001A181B5810B4D0685C68044205D059B1BC
:104A7000C3F884005DF8044B7047936849B9084A4D
:104A80005DF8044B1A607047C3F888005DF8044B6A
:104A90007047044A5DF8044B1A6070478C0400208C
:104AA0003830010038F001000001054B1A58191880
:104AB0009268CB681A4214BF01200020704700BFE3
:104AC0008C040020362800D8C8E77047362806D85E
:104AD0000001034B1A181B58D268C3F88C2070478A
:104AE0008C040020362800D8DEE70020704700BF85
:104AF00036281CD800011A4A012902EB000310587D
:104B000010B415D0042913D0DC68426822EA0402EC
:104B100042609A68E9B102291ED003295B685DF8FA
:104B2000044B0CBF0F491049116015221A607047E1
:104B3000DA680129446842EA040242609A6808D0AF
:104B400040F6380111605B6815225DF8044B1A606D
:104B5000704738211160F6E704491160F3E700BFA0
:104B60008C040020383001003800010038F00100CA
:104B70003E4B2DE9F04F814688463D4885B0196887
:104B80000392814252D900F1A84019680822394C99
:104B900000F516304FF0010B26686B30A0FB013A90
:104BA0004FEADA554FEA1A6A05EB4A03CDF808A036
:104BB0000093CAEB0303C24690460193B9F1360F46
:104BC0002DD923689B1B9D42FBD8029BBAF1360F5F
:104BD00003EB06071ED92368DB1B9D42FBD8019B14
:104BE000BAF1360F03EB06070FD92368DB1B9D4292
:104BF000FBD84FEA4B0B009BB8F101081E445FFA4B
:104C00008BFBDBD105B0BDE8F08F00215046FFF7EC
:104C100025FFEAE701215046FFF720FFDBE7039B72
:104C2000484603EA0B01FFF719FFCAE708250124EC
:104C3000039E06E0B8F1360F0ED96400013DE4B2E0
:104C4000E0D0B9F1360FF5D806EA04014846FFF77F
:104C500005FFB8F1360FF0D840460121FFF7FEFE00
:104C600000214046FFF7FAFEE7E700BF140F0020DF
:104C700000725D17041000E092FAA2F2120EFFF724
:104C800077BF00BF12B11A46FFF7F6BF1A46FFF70B
:104C90006FBF00BF2DE9F04107460E4608254FF0D3
:104CA0000008012405E0362F1FD96400013DE4B25D
:104CB00018D0362EF7D801213046FFF7CFFE362F19
:104CC00007D83846FFF7F0FE18B1362E44EA080838
:104CD000EBD800213046FFF7C1FE013D4FEA440406
:104CE000E4B2E6D14046BDE8F0813846FFF7DCFE8D
:104CF0000028EAD1D9E700BF2DE9F04107460E466A
:104D000008244FF00008802505E0362F1ED9013C0D
:104D10004FEA550517D0362EF7D801213046FFF758
:104D20009DFE362F07D83846FFF7BEFE18B1362E47
:104D300045EA0808EBD800213046FFF78FFE013C1A
:104D40004FEA5505E7D14046BDE8F0813846FFF708
:104D5000ABFE0028EBD1DAE70AB1FFF7CDBFFFF7D2
:104D600099BF00BF70B51A4C0D4604EB0014FFF755
:104D700049FE064604E0FFF745FE801BA84224D802
:104D80002268E36892681A42F5D1FFF73BFE0646B7
:104D900004E0FFF737FE801B854216D32268E368E4
:104DA00092681A42F5D0FFF72DFE064604E0FFF7A1
:104DB00029FE801B854208D32268E36892681A4264
:104DC000F5D1FFF71FFE801B70BD002070BD00BF36
:104DD0008C04002070B51A4C0D4604EB0014FFF74C
:104DE00011FE064604E0FFF70DFE801BA84224D802
:104DF0002268E36892681A42F5D0FFF703FE064680
:104E000004E0FFF7FFFD801B854216D32268E368AC
:104E100092681A42F5D1FFF7F5FD064604E0FFF768
:104E2000F1FD801B854208D32268E36892681A422C
:104E3000F5D0FFF7E7FD801B70BD002070BD00BFFF
:104E40008C040020362806D811B91146FFF7C2BFDE
:104E50001146FFF787BF0020704700BF07F08CB9ED
:104E600007F08AB907F090B907F08EB907F08CB94E
:104E700007F08AB9F0B44E1E0025374600E0013530
:104E8000B0FBF2F302FB130000F13704092800F134
:104E90003000E4B298BFC4B2184607F8014F002BA7
:104EA000EDD14A1953704DB1013316F8014F1778FF
:104EB000E81A3770834202F80149F5DB0846F0BC76
:104EC000704700BF10B5041E03DBBDE81040FFF7BC
:104ED000D1BF2D2320460C46404201F8013BFFF78D
:104EE000C9FF204610BD00BFB4EE400A80EAE0735F
:104EF0002DE9F047F1EE10FA05461446A3EBE073F6
:104F00002DED028BB0EE408A84B080F12381F0EE6B
:104F1000C07A9FEDC67AF4EE477AF1EE10FA42DDE0
:104F2000B5EEC00AF1EE10FA4CBF042203229A42F9
:104F300021DB0028C0F270810022B5EEC08AF1EEBC
:104F400010FA00F14A8149254E204621E31C2570C4
:104F50006070A170002A00F067811A44202103F8D4
:104F6000011B9A42FBD100231046137004B0BDEC24
:104F7000028BBDE8F0870028A3EB0202DDDA002AED
:104F800000F04A81A318202204F8012B9C42FBD197
:104F9000B5EEC08AF1EE10FA40F1178100222D2102
:104FA0005C1C1970CFE70F4602AA01A93846BA4621
:104FB00007F069F8DDF804908046002F00F0878044
:104FC000C9F10003BB4200F3BC80404607F008FA79
:104FD0000646B145B8BF0136B9F1000F00F0AF8009
:104FE000B9F1000F22DA0FB309EB0703BE1C8342AD
:104FF0001CD2002F06DDF2EE047ABAF1010A28EE87
:10500000278AFAD102AA5046B0EE480A03A907F04F
:105010003AF8DDF80490039A7B1C8046C9EB020243
:105020009A4203D109F10109CDF80490DDF808E0B6
:10503000BEF1000F5ED00136A81BA11900285EDC6E
:1050400022462D20531C1070B9F1000F6DD087B18E
:10505000B9F1000F0DDA1A4630202E2702F8020BA4
:105060005F70C9EB020302F8010B9A42FBD10022E8
:1050700001928B4220D25F1C98F8002008F10108B1
:105080008F421A7019D0019A4FF02E0E0BE083F860
:1050900001E002338B4203F101070DD218F8010B36
:1050A0008F42187009D0013A0192002AEFD03B4696
:1050B0008B4203F10107F1D31946002D71DB002368
:1050C00020460B7004B0BDEC028BBDE8F087B9F14F
:1050D000000F7FF475AF012390F800805449554AC2
:1050E000994601934FF0FF33B8F1340F8CBF8846D7
:1050F000904667E7A81BA119002840F3938001445C
:10510000224601384FF0200C02F801CBC2F1010316
:1051100003442344002BF7DC20EAE07301332344EB
:10512000BEF1000F90D01A468BE7002FA1D01A468F
:1051300030272E2002F8027B5870134699E701367B
:1051400074E70126C7F10009DFF8E8803046CDF8A2
:1051500004903EE7B5EEC00AF1EE10FA4CBF04220F
:1051600003229A423BDA0028A3EB020340DB18EE4D
:10517000102A002A37DB4E214120E21C2170A17049
:105180006070002B4CD01344202102F8011B9A427E
:10519000FBD1002218461A7004B0BDEC028BBDE8AA
:1051A000F087A8194342C043002B88DD0A4620251A
:1051B00002F8015BC2F1010303440B44002BF7DC4E
:1051C00020EAE0730133194479E749244E2046214F
:1051D000DA1C1C7058709970C5E62346DFE600287B
:1051E00018DB0023C3E722462D21541C1170C2E7AF
:1051F00083B1E218202304F8013B9442FBD118EE5E
:10520000103A002B0ADB4E214120D31C1170917003
:105210005070BEE72246F2E72346B9E60023E3E7F3
:105220001346B6E723460FE71A469CE6FFFF7F7F4B
:105230006C0B0020680B0020F0B501EB4106294CF7
:10524000012500EB461694F800C005FA01F1F48937
:105250001FFA81FEB0F88851A4B24FEA0E1704FB82
:105260000333ADB207F0F00723FA0CF33D43A3423A
:10527000A0F8885128BF2346012A22D015D3022A3C
:1052800008D001F00F01B0F888319BB21943A0F8A3
:105290008811F0BD9BB201F00F01F383B0F88031AB
:1052A0009BB21F43A0F88071EDE7E31A01F00F01F4
:1052B0009BB27381B0F880319BB20B43A0F8803170
:1052C000E1E79BB201F00F014FEA0E2EF382B0F836
:1052D00080310EF4706E9BB24EEA030EA0F880E1AE
:1052E000D1E700BF341100202DE9F0414FEA410E13
:1052F000384AB6EE007A4FF0010C0EEB01030CFABF
:1053000001F700EB4313BEB2DB89D2ED007A9DB208
:10531000F8EE677A87EE800A30EE070AFCEEC07A74
:1053200017EE903AB3F5803F4ED300224FF6FF744C
:1053300001E0062A03D85B080132A342F9D8B3F58D
:10534000803F4FEA021237D242F4806292B203F1F8
:10535000FF3C1FFA8CFCB0F88881360107F00F047F
:105360007144F6B21FFA88F700EB41113E43A0F8F2
:105370008861CA80A1F80EC04A8992B203FB02F28A
:10538000B2FBF5F292B24A81CA8A92B203FB02F2F0
:10539000B2FBF5F292B2CA82CA8B92B203FB02F35D
:1053A000B3FBF5F39BB2CB83B0F888319BB21C43BF
:1053B000A0F88841BDE8F08142F480624FF6FE7C9F
:1053C0004FF6FF7392B2C6E7012B4FF48062BED84E
:1053D0000223C0E7180F002049010E4B70B4451896
:1053E0001E780144EB882C8A9BB2C3F1011313FA97
:1053F00084F35C1E04FB02F2F240944298BF9A1EB2
:105400009B1A92B2C3F101039BB2EB800A8270BC7B
:10541000704700BF34110020224BB6EE007AD3ED66
:10542000007AF8EE677A30B487EE800A4FF6FE74A1
:1054300030EE070AFCEEC07A17EE903AA3422AD962
:10544000002201E0062A03D85B080132A342F9D802
:1054500008324FF6FE7542F226045202AB4202F4C5
:10546000F05288BF2B46144300EB41110D8ACA88C5
:10547000ADB292B205FB03F0C2F101122A44B0FBB7
:10548000F2F29B1A92B2C3F101039BB2CB800A8263
:105490008C8130BC7047012B43F2260498BF022355
:1054A000E2E700BF180F002036280CD8294AF8B5CB
:1054B000044600B212F8206002EB8005012E03D0F2
:1054C000022E16D0F8BD70476A78C2F30113032B81
:1054D0003AD0214850F823008BB202F00301AA7899
:1054E000FFF7AAFE1D48EA7800EB041043681A6033
:1054F000F8BD6E78C6F30113032B27D0184A52F873
:1055000023E006F00306174B89B20EEB461793F81B
:1055100000C07601FA880EEB0603764492B2188A30
:10552000C2F1011212FA80F2501E00FB01F323FABD
:105530000CF3984298BF931ED21A9BB2C2F101029B
:1055400092B2FA803382CDE70748C5E7DFF81CE066
:10555000D7E700BFFC070020D80800208C040020FB
:10556000E40800203411002000803E4000801E40EE
:10557000362809D800B2144A12F8201002EB800332
:10558000012902D002290ED070475978C1F30110C9
:10559000032815D002EB8002D2F8DC009A7801F0E3
:1055A0000301FFF7A1BE5978C1F30113032B09D002
:1055B00002EB8302D2F8E80001F00301FFF72CBFF1
:1055C0000248EBE70248F7E7FC07002000803E4076
:1055D00000801E4000234FF470410F22A0F88C1170
:1055E0001946A0F88E21A0F890310A46B0F888310B
:1055F0009BB270B443F0F0034FF460464FF4806503
:1056000048F2B824A0F8883101EB4103013100EBE6
:10561000431304299E80DD805A841A865A805A8159
:10562000DC815A82DA825A83DA83EDD1B0F888318C
:105630009BB243F00F03A0F88831B0F888319BB2D9
:1056400043F4706370BCA0F8883170470022F0B555
:1056500011464FF00F0E41F2010745F6C05643F2D6
:105660002605540101320319042A99815981A3F8AE
:105670000EE09F82DE80015319829D81F1D1F0BD41
:10568000A4484FF00F0CA44B826F42F47F02F0B598
:1056900082670025D0F880204FF470469F4C4FF46D
:1056A000604E29464FF4806714432A46C0F8804074
:1056B000A3F88C6148F2B826A3F88EC1A3F89051E4
:1056C000B3F8880180B240F0F000A3F8880101EB44
:1056D0004100914B0131002540011C46042903443F
:1056E000A3F804E0DF805A841A865A805A81DE814A
:1056F0005A82DA825A83DA83E9D1B4F888014FF00A
:105700000F0C874B4FF4704680B229464FF4604728
:105710002A4640EA0C004FF4806EA4F88801B4F8E1
:10572000880180B240F47060A4F88801A3F88C610D
:1057300048F2B826A3F88EC1A3F89051B3F88801B7
:1057400080B240F0F000A3F8880101EB4100744BF7
:105750000131002540011C46042903449F80A3F821
:1057600006E05A841A865A805A81DE815A82DA8289
:105770005A83DA83E9D1B4F888014FF00F0C694BF2
:105780004FF4704680B229464FF460472A4640EAFB
:105790000C004FF4806EA4F88801B4F8880180B240
:1057A00040F47060A4F88801A3F88C6148F2B82630
:1057B000A3F88EC1A3F89051B3F8880180B240F0ED
:1057C000F000A3F8880101EB4100564B01310025A0
:1057D00040011C46042903449F80A3F806E05A8434
:1057E0001A865A805A81DE815A82DA825A83DA8393
:1057F000E9D1B4F888014FF00F0C4B4B4FF47047D0
:1058000080B229464FF460462A4640EA0C004FF425
:10581000806EA4F88801B4F8880180B240F470600A
:10582000A4F88801A3F88C7148F2B827A3F88EC1B8
:10583000A3F89051B3F8880180B240F0F000A3F8CB
:10584000880101EB4100384B013140011C4604291D
:1058500003449E80A3F806E05A841A865A805A812F
:10586000DF815A82DA825A83DA83EAD1B4F8883146
:105870000F27002241F201069BB245F6C05E114699
:1058800043F226053B43A4F88831B4F888319BB233
:1058900043F47063A4F888315001244B013203446F
:1058A000042A99815981DF819E82A3F806E019803C
:1058B00019829D81F0D100220F2741F2010645F6A1
:1058C000C055114643F226045001194B01320344DE
:1058D000042A99815981DF819E82DD801980198295
:1058E0009C81F1D100220F2741F2010645F6C055F7
:1058F000114643F2260450010E4B01320344042AA0
:1059000099815981DF819E82DD80198019829C8175
:10591000F1D1F0BD00C00F4000C03D40000003FCCD
:1059200000003E4000403E4000803E4000C01D4020
:1059300000001E4000401E40572811D883290FD870
:105940000A4A10B44C08C90732F814309BB208D583
:10595000DBB243EA002080B222F814005DF8044B69
:10596000704703F47F43184380B2F5E700C03B4023
:1059700038B11028054A28BF1020C3B21078137020
:105980007047024A012310781370704734110020C9
:105990000A4B30B4586A1C46996A626AA36A9942F3
:1059A00008BF9042104619460CBF01250025002D66
:1059B000F3D0D90B30BC41EA4240704700400D4063
:1059C000124B9A68194622F001129A608B680F4AAE
:1059D000DB07FBD4936B114623F0010393638B6BBE
:1059E0000A4ADB07FBD4C3031146400C536510651C
:1059F000936B43F0010393638B6B044ADB07FBD586
:105A0000936843F001139360704700BF00400D405E
:105A1000704700BF704700BF704700BF03686BB19D
:105A2000406860B1064BA3FB0023DB0803EB430394
:105A3000B0EB830F0CBF0120002070471846704761
:105A4000ABAAAAAA08B503684268BBB17AB1104BE9
:105A5000A3FB0213DB0803EB4303B2EB830303D086
:105A6000D21A4260F02A02D90123184608BD06F076
:105A70001BFB1C2200230260184608BD044BA3FB3D
:105A80000213DB0803EB4303B2EB8303E8D1E9E73E
:105A9000ABAAAAAA70B5044600283AD019B1B2FA46
:105AA00082F56D09FDB1206808B1626832B906F06F
:105AB000FBFA162300220360104670BD1849A1FBB3
:105AC0000231C90801EB4101B2EB8101EFD1A368BA
:105AD0000BB106F099FB002301222360104663609E
:105AE000A360E36070BD1E46049B80E80600C360AF
:105AF000FFF7A8FF02460028DED016B901221046A3
:105B000070BD94E80500A660294606F07DFB0122E1
:105B1000D2E706F0C9FA162322460360CCE700BF9D
:105B2000ABAAAAAA00B583B0009313460A46014661
:105B30000248FFF7AFFF03B05DF804FB641A0020D2
:105B4000002300B583B01A4619460093FFF7A2FF61
:105B500003B05DF804FB00BF0023054800B583B027
:105B60001A4619460093FFF795FF03B05DF804FB52
:105B7000641A002072B6EFF30583494D6B60EFF3B2
:105B80000883484C2E4648484849494A24680068DA
:105B9000096812682961AC60E8606A619A69454CDD
:105BA000AA61DB69444FEB6100F0E8F885ED080A73
:105BB000FFF7EEFE0B234FF0FF32686219462B60B1
:105BC0004A40202102F00103013904FB03F383EA78
:105BD0005202F7D1BE4202D056F8041FF0E7304916
:105BE0008A62BFF34F8F354B354A19601A60BFF395
:105BF0004F8FBFF36F8F334A0225334CD36E334937
:105C000043F440533248D3662560D36923F07F03C1
:105C100043F04003D3610B6883423ED82A4A0021F7
:105C200001202C4E11604FF0FF33C2F808110C46D2
:105C3000C2F800611546C2F808010746DFF8C0E067
:105C4000254E26482649274ACEF8003033600360A7
:105C50000B60136001E000F083F9D5F80C211A4BBA
:105C6000002AF8D00134C5F80C714F2CF3D91E4A24
:105C700002241E484FF00041C0F840415163D3F860
:105C80000C2132B91A491B4A0A63D3F80C010028C7
:105C9000FAD0194B194A1A60FEE7FEF7EBFCBDE794
:105CA00080FF272028ED00E02CED00E034ED00E03F
:105CB00038ED00E02083B8EDA4FF272070EF00E06E
:105CC000A0FF272000C00F4000400840140F002014
:105CD000803DCD0B009F240084E100E088E100E0DE
:105CE0008CE100E090E100E000900D4000002E40CB
:105CF00000800F40F100AD0B0CED00E00400FA0550
:105D000080E100E0094A08B5136820B11844084949
:105D1000884202D81060184608BD06F0C5F90C226A
:105D20004FF0FF330260184608BD00BF1C0F002073
:105D300000002820002070474FF0FF30704700BF60
:105D40004FF4005300204B60704700BF01207047A4
:105D50004FF0FF30704700BF30BFFDE730BFFDE7B9
:105D60000078B0FA80F04009704700BF012303704B
:105D7000704700BF30BFFDE7FFF7FCBE10490B685E
:105D80000F4A5B07FBD513680E4AC3F30B2392ED52
:105D9000026A07EE903A92ED000AD2ED036AB8EE7D
:105DA000E77AD2ED017AF8EE677A77EE677AB8EEA5
:105DB000407A67EE867A87EEA60A37EE400A704789
:105DC00080810D40F8190020024A136843F0020355
:105DD0001360704780810D40024A136823F002036C
:105DE0001360704780810D40024A136843F001033D
:105DF0001360704780810D40836BF0B41BB1536812
:105E000043F40043536072B6446B5CB31C4B226096
:105E1000D3F8B0410C4215D11A4E376804E034680B
:105E2000E41BB4F5166F0BD2D3F8404144F4804420
:105E3000C3F84041D3F8B851D3F840416404EED5DB
:105E40000D4003D0426362B6F0BC70470C4C8260D8
:105E5000C560D4F8B0311943C4F8B011426362B6DA
:105E6000F0BC7047064D8260C460D5F8B03119436C
:105E7000C5F8B0110263426362B6F0BC704700BF60
:105E800000002E40041000E070B50646006B90B193
:105E90000246002403E012680134012A0CD0536842
:105EA00013F08003F7D032632CB1B36B05689847C9
:105EB000013C2846F9D170BD33637363F4E700BF3A
:105EC000F0B5E1B9214C22490020224B01224FF0CC
:105ED000011580260A601A46A1604E60E060C3F892
:105EE000BC51D3F8B0411C4D44F001048860C3F8A4
:105EF000B0412860D2F8B031002BFBD1F0BD0904CD
:105F0000164B144D0126114C41F0800100221E60F9
:105F1000596000F5805CE26400F5005EA36400F562
:105F20004057D5F8B01100F580462A46986041F4F4
:105F30008031C3F80CC0C3F810E05F619E61C5F802
:105F4000B011D2F8B031002BFBD1BCE7000000202B
:105F5000401A002000002E40D8180020201A0020EF
:105F60002DE9F04FBB4C83B0D4F8448118F0010FF9
:105F7000C4F844815ED0D4F8AC31002B55D04FF03A
:105F8000011BDFF8DC92B44E2546DA46C4F8AC318A
:105F9000B06AF26AD4F8403143F40053C4F8403197
:105FA000D4F840319904F5D5D5F8403123F40053A5
:105FB000C5F84031C5F8B4A1D4F8B43113F00113D9
:105FC000FAD181B240F28167C9F80030B94200F2DB
:105FD000B180B1F5D06F80F0D781B1F5817F00F04D
:105FE000598100F2EC80802900F04681822940F03E
:105FF000DE8092B202F07F01072900F2D880974834
:1060000089001206415896480372437240F1FB81A1
:10601000CB0302D5012389F8083002219148FFF70C
:106020004FFFD4F8AC31002BB0D18A4AD2F8BC3142
:10603000002B4BD118F0400F18D0864BD3F8AC1181
:106040001A46C3F8AC11D3F8BC11C3F8BC11D2F88E
:10605000B041804B002CFAD14FF0FF32C3F8B4218D
:10606000D3F8843100F0BAFD7D4BDC6218F0807FFC
:1060700003D07B4B1B6B03B1984718F0007F03D014
:10608000774B5B6B03B1984718F0040F08D0714B46
:10609000D3F8843113F4007349D0714B01221A7480
:1060A0006C4BD3F8482112060DD518F0800F0AD09A
:1060B0006B4991F8292032B1013AD2B281F82920F6
:1060C000002A00F03B8203B0BDE8F08FDFF890912A
:1060D000C2F8BC31D9F800100B4240F0D681D9F893
:1060E0002C501D40A6D02F0C0FD05B4E4FF0010955
:1060F00097FAA7F4B4FA84F406EBC41009FA04F48E
:106100004030FFF7C1FEA743F2D1ADB2002D91D0D0
:10611000514E012795FAA5F4B4FA84F406EBC410A5
:1061200007FA04F4FFF7B0FEA543F3D182E74C4A27
:106130001374B5E742F22107B94234D067D8B1F5FC
:10614000086F00F01281B1F5106F30D10193C0F3E8
:1061500007404549424B454A454F1871C5F8C8713B
:10616000C5F8CC11C5F8D02100F03AFD414A019B99
:1061700080210120B26451601060F364C5F8BCB1A5
:10618000D5F8B011936041F48032C5F8B021344A9B
:106190001360D4F8B031002BFBD1D4F8AC31002B14
:1061A0007FF4F4AE41E7110C072900F03081C4F808
:1061B000C0B1D4F8AC31002B7FF4E8AE35E740F243
:1061C0000237B94200F0A180B1F5A06FEFD1294AA2
:1061D00080210127F364B26417605160C5F8BCB137
:1061E000D5F8B011936041F48033C5F8B031D4F8DC
:1061F000B031002BFBD1030C5B0643F08073C5F874
:106200005431D4F8AC31002B7FF4C0AE0DE742F22C
:10621000212399426DD042F221339942C7D1154BC7
:10622000802200210120B36418605A60F164C4F830
:10623000BCB1D4F8B021996042F48033C4F8B031D5
:10624000D4F8B031002BFBD1D4F8AC31002B7FF463
:106250009DAEEAE600002E4000000020C0012E4066
:10626000D8180020E0180020C80002000200C80072
:106270000200CC00401A0020B8480221A0F1080218
:1062800013725372FFF71CFED4F8AC31002B7FF46D
:106290007DAECAE692B202F07F03072B87D812F0D8
:1062A000800F4FEA8303AE4A4FF000014FF0010028
:1062B0001A44136814BF23F4803323F001031360DE
:1062C0008022A84BF164B36418605A60C4F8BCB172
:1062D000D4F8B021996042F48033C4F8B031D4F8D6
:1062E000B031002BFBD1D4F8AC31002B7FF44EAE93
:1062F0009BE692B2002A92D19B4BC0F307409B4A87
:1063000019689B4B1160187089E792B202F07F0305
:10631000072B3FF64CAF12F0800F4FEA8303904AF1
:106320004FF000014FF001001A44136814BF43F40A
:10633000803343F00103136080228A4BF164B3641D
:1063400018605A60C4F8BCB1D4F8B021996042F426
:106350008033C4F8B031D4F8B031002BFBD1D4F87D
:10636000AC31002B7FF412AE5FE67C480121814BFB
:10637000A0F108021B791372FFF7A2FDD4F8AC312B
:10638000002B7FF403AE50E67B4B596800293FF4A5
:106390000EAF000C1FFA82FE04E00C33596800298E
:1063A0003FF405AF1F888742F7D15F887745F4D166
:1063B000070A032F00F0BC801B89120C934228BFF0
:1063C0001346B0F5007F00F0A480B0F5E06F00F058
:1063D0008E806A4F1A460193384605F0EFFE019B06
:1063E00027F01F021F44BFF34F8F65490A60203218
:1063F0009742FAD8BFF34F8FBFF36F8F5F481946AC
:10640000FFF75EFD0DE6CF077FF507AE02E65D49BB
:106410000127F3600F605C4B564F4B60B86107F18A
:106420002003B160D5F8B00103F5005EFA6103F511
:10643000805740F001028B6003F5405003F5804324
:10644000CF60C1F810E048618B61C5F8B021D4F885
:10645000B031002BFBD1434A012048F28001F364A4
:1064600010604FF48030B2645160C5F8BCB1D5F80B
:10647000B011936041EA0003C5F8B031C9F80000DB
:10648000D4F8B031002BFBD1CBE5B9F8184042F27B
:1064900021000025D9F81C108442C9F800507FF46F
:1064A0001EAE89B200297FF41AAE09F12001374CE3
:1064B00003C90D0C86282060A180A5717FF40FAE62
:1064C00072B699F8281041F0040189F82810D2F822
:1064D0004811080606D441F080018020C2F844012A
:1064E000C2F8481162B6502289F82920F7E599F8D8
:1064F00010E01A462648214F26490193BEF1000FAD
:1065000008BF0146384605F059FE0722019B7A7004
:1065100066E799F810701A461E481D490193002F2E
:1065200008BF0146154805F049FE144F019B57E787
:10653000120C0B78934228BF134646E791F82820A7
:1065400002F0FB0281F828202AB9D3F8482122F072
:106550008002C3F8482109F0F7FA00BFE0180020D4
:10656000C0012E40401A0020EC1900208C1A002097
:10657000A5180020D8180020F008002000002020D6
:1065800070EF00E0201A002080000700841A00202D
:1065900028200060DC1F006010B472B601230C4C90
:1065A0000C4903FA00F094F82830D1F84821184338
:1065B000130684F8280006D442F080028023C1F834
:1065C0004431C1F8482162B65DF8044B704700BF02
:1065D000D818002000002E400123094A03FA00F0D9
:1065E00092F8283023EA000082F8280030B9054AE2
:1065F000D2F8483123F08003C2F84831704700BF19
:10660000D818002000002E40002AA0F102022DE937
:10661000F04714BF00274FF00057022A01D9BDE808
:10662000F0874FEAC019DFF840A00D4604460AEB98
:106630000906002140229846304605F0E5FD01207C
:1066400047EA05414AF80910C6F83880B060B8F149
:10665000000FE4D0034BA040DC6A2043D862BDE8C1
:10666000F08700BFD818002000000020002AA0F109
:1066700002022DE9F04714BF00274FF00057022A0D
:1066800001D9BDE8F0874022C501DFF84490884673
:106690001544002104461E4609EB050A504605F044
:1066A000B3FD012247EA084149F80510CAF83860ED
:1066B000CAF80820002EE4D004F11000034B8240F9
:1066C000D86A0243DA62BDE8F08700BFD81800201C
:1066D000000000202DE9F047551E022D02D8841E2F
:1066E000022C01D9BDE8F0874FEAC019DFF840A0BD
:1066F00014460E460AEB0908402200210546404692
:106700001F4605F081FD0120A20742EA06414AF832
:106710000910C8F83870C8F80800002FE2D0034B01
:10672000A840DD6A2843D862BDE8F087D818002069
:10673000000000202DE9F047551E022D02D8841ECE
:10674000022C01D9BDE8F08714464FEAC018402258
:10675000DFF844A00E460546904400211F460AEB90
:106760000809484605F050FD0123A20742EA064108
:106770004AF80810C9F83870C9F80830002FE1D07D
:10678000044905F11000CA6A83401343CB62BDE897
:10679000F08700BFD818002000000020120481609C
:1067A000C36142F08002F0B44260012701F58056D7
:1067B00001F5005501F5405401F580420760C660BF
:1067C000056144618261F0BC704700BF831E022BEB
:1067D00000D97047064B0A4630B400F11004012579
:1067E00003EBC01005FA04F1403030BCFFF704BBE6
:1067F00000000020831E022B00D9704710B4054B07
:1068000001240A4604FA00F103EBC0105DF8044BC2
:10681000FFF7F2BA0000002040687047124A134B9D
:10682000D2F8200220F07F40984210B584B002D800
:1068300000EB800040000E4C01A90A22FEF71AFB73
:1068400001A90023204611F8012B01333AB10A2B8C
:1068500020F8022FF7D11623237004B010BD5B007F
:10686000DBB2237004B010BD00441F407F96980037
:10687000200F002000F0BCBA00F094BA00F0E2BA99
:1068800000F0B0BA00F030BB00F00CBB0846114677
:1068900000F0FEBA084600F0E5BA00BFF8B51549A9
:1068A0004FF4003E144D034601EB4024134F05EB1B
:1068B0004016B5F800212146C7F800E03046FFF742
:1068C0006DFFB5F8001124F01F032144BFF34F8F73
:1068D0000B4A136020339942FBD8BFF34F8FBFF3AD
:1068E0006F8F03203146FFF785FF064B4FF40032D0
:1068F0001A60F8BD60002020E01600208CE100E066
:106900005CEF00E00CE100E02DE9F0414368264C2B
:10691000C3F30E43C669B4F80051ED1A002D3EDDF5
:1069200094F8023194F80321DBB293420AD0E218C2
:1069300092F8040104EB4008B8F81071C7F5007232
:10694000954217D90133002204EB4601082BA1F828
:10695000242194BFDAB21346A1F8105184F8022121
:106960002344D4F8202183F804611544C4F820514D
:10697000BDE8F08107EB40200C492A462F4408442B
:1069800001EB462105F01AFCD4F820313046A8F876
:1069900010711D44C4F82051BDE8F0417EE7304637
:1069A000BDE8F0417AE700BFE0160020600020203B
:1069B000F8B51E4E96F834213AB902F0FF031C4A8E
:1069C000127812B1B6F8362102B9F8BD96F838112E
:1069D00006F5A077174CC2F5006507EB411704EBED
:1069E000C1242A4638462146FFF7D8FE2A1924F04A
:1069F0001F01BFF34F8F104B196020318A42FBD823
:106A0000BFF34F8FBFF36F8F04203946FFF7DEFED1
:106A100096F83831054A0133DBB2032B88BF0023D7
:106A200082F838310023A6F83631F8BDE016002090
:106A3000DC1800206010202070EF00E02DE9F04FFE
:106A400085B08B460290002900F0B8805C4D002391
:106A5000DFF880812E46DFF880A10193012295F8AE
:106A60003841B5F8363185F83421564A02EB4419DD
:106A7000002B7ED11F461C461FE0BFF34F8F002323
:106A80004F4A85F834310CB9D8F8007095F8C03108
:106A9000002B67D1D8F80030DB1B782B00F2878001
:106AA0009AF80030002B5DD000F068FA0124B6F8A7
:106AB000363186F83441002B58D14846FFF7ACFEFA
:106AC00010F08000D9D14FF4006395F8384185F873
:106AD000C0011A46E4023C4920449345A5F83631EA
:106AE00008444FD30C44029905F068FB002321466B
:106AF0004FF400624846FFF751FE24F01F0304F5EF
:106B00000064BFF34F8F314A136020339C42FAD8A0
:106B1000BFF34F8FBFF36F8F04204946FFF756FE38
:106B200095F838310198002201332949DBB2032B53
:106B300088BF002386F83831B5F83631A5F83621FC
:106B40001844C3EB0B0B0190029818440290C1F853
:106B50008420BFF34F8F002385F83431BBF1000F41
:106B60007FF47CAF019805B0BDE8F08F144A92F82D
:106B700038411A46C3F50060E402134993452044A6
:106B80000844AFD203935A46019B02995B44019398
:106B900005F014FB039B4FF040410D4ACBEB030380
:106BA0004FF0000BA5F83631C2F88410D1E701236D
:106BB000019882F8C03105B0BDE8F08F0846D2E7F1
:106BC000E0160020201800206010202070EF00E068
:106BD00000002E40EC190020DC180020704700BF98
:106BE000F8B52F4B2F4E1B78002B52D04FF400736B
:106BF000A6F8C231A6F8003100252B4F80222B4881
:106C000029462C4605F000FB29464FF480722548A2
:106C100086F83851A6F8365105F0F6FAC6F8105144
:106C20002B46C6F824512A46102102207D60BD6003
:106C3000FD60BD61FD613D6286F8025186F8035139
